:020000020000FC
:020000002CC40E
:0200040065C0D5
:0200080064C0D2
:02000C0063C0CF
:02001400A9C081
:02002000D5C049
:02002400D4C046
:02002800D3C043
:02002C00D2C040
:02003000D1C03D
:02003400D0C03A
:02004000CDC031
:02004400CCC02E
:02004800CBC02B
:02004C00CAC028
:02005000C9C025
:02005800C7C01F
:02005C00C6C01C
:02006000C5C019
:020078001FC1A6
:02007C001EC1A3
:020080001DC1A0
:020084001CC19D
:020088001BC19A
:10008C004465766963653A222D3D54616E6B446517
:10009C006D6F2076302E313D2D220D0A4173736524
:1000AC006D626C7920627920535F416C65780D0A22
:1000BC0031353A323820323031312D30352D323421
:1000CC000D0A00001895189518956FB60F931F938D
:1000DC002F933F934F935F930091880010910901E8
:1000EC0000930901011B00930701009189001091F5
:1000FC000A0100930A01010B0093080100910B0106
:10010C0010910C0116950795169507951695079560
:10011C00169507951695079520910B0130910C01BA
:10012C00200F311F40910B0150910C01401B510BC2
:10013C0000910701109108010217130738F40417F6
:10014C00150720F0706400E80093B5015F914F91A2
:10015C003F912F911F910F916FBE189518956FB607
:10016C000F9301B105FB0F9174F90F9300E1702708
:10017C000F910F930EE574FF0FE50093B4010093FC
:10018C00B3010F910F931F932F932FB7009165001D
:10019C0011E00127009365002FBF2F911F910F9144
:1001AC000E94590A6FBE18956FB60F9301B106FBEA
:1001BC000F9175F90F9300E270270F916FBE189590
:1001CC0018951895189518951895189518951895BB
:1001DC0018951895189518951895189518951895AB
:1001EC0018956FB60F931F932F933F934F935F9375
:1001FC00009180001091020100930201011B0093F9
:10020C000001009181001091030100930301010B87
:10021C000093010100910501016010E0209104019F
:10022C0030910501200F311F4091040150910501BF
:10023C00401B510B00910001109101010217130793
:10024C0038F40417150720F0706804E20093B2012B
:10025C005F914F913F912F911F910F916FBE189508
:10026C00189518956FB60F931F932F932FB705B34F
:10027C0010E8012705BB2FBF2F911F910F910F93F2
:10028C001F930091820010912E01010F0F9300918A
:10029C00830010912F01101F0F9110938300009376
:1002AC0082001F910F916FBE18951895189518958F
:1002BC001895189518956FB60F931F93FF93EF939E
:1002CC00FEE0E8E8092F0F70E00FF31DEE0FFF1FA3
:1002DC00059115911BBD0ABDEF91FF911F910F91D7
:1002EC006FBE18950027009361000093620000E632
:1002FC0007B90FEA06B930928E00369A08956FB698
:10030C000F931F93DF93CF9307B10A950770D1E03A
:10031C00C0E8C00FD31D14B115B11883CF91DF9174
:10032C0017B1012F0395077009F46460187F102B27
:0A033C0017B91F910F916FBE1895BD
:020054005AC18F
:100346003092880108953F933FB7F8940F9304B312
:1003560000FB0F9110F90F9304B301FB0F9111F9F4
:100366000F9304B302FB0F9112F9A098A198A298DB
:10037600A89AA99AAA9A00E00A95F1F70FEF0F93A7
:1003860003B300FB0F9100F90F9303B301FB0F9129
:1003960001F90F9303B302FB0F9102F9009510FBCD
:1003A6000EF4A09A0EF0A09811F90EF4A19A0EF090
:1003B600A19812F90EF4A29A0EF0A2983FBF3F91AF
:1003C6000895139814981B981C98002700938B0186
:1003D60000938C0100938D010F9305E01ED70F91BA
:1003E60008953F931F9300918B01000F0F9301B166
:1003F60003FB0F9100F90F9301B104FB0F9104F970
:1004060000938B0130918C01102F0F7009F43E7F01
:1004160000950F7009F43160107F09F43F7E109546
:10042600107F09F4306100918C01032711F13171BD
:1004360030938C01102F0F7069F000910E01039517
:1004460000930E0130910F01301721F46061009185
:100456002A01E3D6107F69F00091100103950093FD
:10046600100130911101301721F4606200912B01C7
:10047600D4D60F9305E0D1D60F911F913F910895E1
:10048600D998D898DE98DF98D19AD09AD69AD79AE2
:0E04960000917D000C6100937D0080E00895D0
:0200740021C2A7
:020068001DC2B7
:02006C0020C2B0
:1004A4006FB6DF98DE986FBE18956FB6D898D99856
:1004B4006FBE18956FB60F9304D015D00F916FBE11
:1004C4001895082F007771F087FD0195000F0093B0
:1004D400870030928600DE98DF9887FD02C0DF9A9D
:1004E4000895DE9A0895082F077079F0029583FD28
:1004F4000195000F0093850030928400D898D99814
:1005040083FD02C0D99A0895D89A08956061606203
:10051400C0931201D0931301E0911201F0911301E1
:1005240064FF21C065FF1FC0859100EF082309F017
:100534006F7E0FE0082309F06F7D059110910E0185
:10054400100F10930F01059110911001100F1093CB
:100554001101B591AA2700E17DD6BB2321F40091B6
:100564002C015CD60895E0931201F093130102E18B
:10057400AFE0B0E06FD608958F700895807F08953E
:1005840080E002E193D600E191D6089505BB12D034
:1005940008951F930F9315B3107F02950F70012BCD
:1005A40005BB08D00F910F70012B05BB03D070D091
:1005B4001F910895AC980000AC9A0000AC9808957F
:1005C400AC98AE98A49AA69AAD98A59A04B30F6075
:1005D40004BB00E3029515B3107F0F70012B05BB1C
:1005E400E9DFEFE1FEE43197F1F700C00000E2DF5C
:1005F400EFE1F3E03197F1F700C00000DBDF48D012
:1006040000E2029515B3107F0F70012B05BBD2DFFA
:100614003FD00CE2AE98BDDF0EE00093A001AE988F
:10062400B8DF06E0AE98B5DF01E0AE98B2DFEFE3E5
:10063400FFE13197F1F700C0000000E80093A10149
:10064400089507FD04D0AE9AA4DF22D00895FF9345
:10065400EF930F77FEE1E6E8E00FF31D0491EF91CD
:10066400FF9108950991EDDF08810023D9F70895DA
:100674000591E7DF04910023D9F708950591E1DF9F
:100684001A95E1F708950991DCDF1A95E1F70895C9
:100694000F930EEE0A95F1F70F9100C0089518E03C
:1006A40000E8AE9876DFEADF00ECAE9872DF18E07F
:1006B400E5DF089518E000E8AE986BDFE4DF00ECB6
:1006C400AE9867DF18E0DFDF0895D1E0C0E9F2DF1C
:1006D4000091A001AE985DDF0091A101AE9859DFB1
:1006E400089510E100E209931A95E9F70895059138
:1006F400099304910023D9F708950F93009164009E
:100704000460009364000F910F931F931FB700912F
:1007140065000460009365001FBF1F910F91089549
:100724000F93009164000460009364000F910F9391
:100734001F931FB7009165000B7F009365001FBFD7
:100744001F910F910895002700E00093A2010093E8
:10075400A3010093A40108950091A401F3D7009389
:10076400A401003681F43092A4010091A301EAD7D8
:100774000093A301003639F43092A3010091A20141
:10078400E1D70093A20108950091A401DED700935C
:10079400A401093991F409E50093A4010091A3018E
:1007A400D4D70093A301093941F409E50093A301C7
:1007B4000091A201CAD70093A20108950091A20159
:1007C4000F70006309930AE309930091A301029552
:1007D4000F70006309930091A3010F7000630993E4
:1007E4000AE309930091A40102950F700063099331
:1007F4000091A4010F70006309930895BA04BB0427
:10080400B50863027502F401CE07AA07050AE905D3
:10081400F70B47078307AF0AFC0A7006C202970565
:100824008E023007BE02C002F006ED06F306FE0695
:100834001107C106A906DF063A054F056606F50944
:100844008A08220729072305EC04D40490067405BA
:10085400C1049203A806D49A0FEF0DBF00E10EBFA6
:100864003324CCE1DD27EE27FF27EA93CC23E9F7F5
:10087400C0E0D1E0E0E0E993CF3F00E1D007D8F356
:100884003FBE2224AA249CD48FD407E003BF07B719
:06089400026007BF28C04E
:02003C002EC4D0
:10089A006FB60F931F930CE911B7010F01BFFF93B6
:1008AA00EF932F93E0E5F1E020E100810F3F71F033
:1008BA001F93018112810150104001831283012B81
:1008CA001F9121F40081A7D40FEF008333962A9554
:1008DA0061F72F91EF91FF911F910F916FBE1895BC
:1008EA000F93009164000160009364000F910F93CD
:1008FA00009164000260009364000F910F931F93AC
:10090A001FB7009165000E7F009365001FBF1F91FE
:10091A000F910F931F931FB7009165000260009318
:10092A0065001FBF1F910F91F8DE47DE25D02FD536
:10093A00ADD55DD664D3F9D311D5A0DD40DDDED2C5
:10094A00D6D00CE00093A0016D7F9924FADC00FD5B
:10095A0054D000FD07C001FD3AD001FD20D001FDB1
:10096A0001C06CD0789437D4FECF0895F2DE01E04E
:10097A00A4E6B0E06CD408950F931F932F932FB77A
:10098A000091650012E00127009365002FBF2F91A7
:10099A001F910F910AE2A3E3B0E059D408950F938F
:1009AA00FEE1E6E561FF02C0FEE1E6E6D1E0C0EB6A
:1009BA0000E1A4D407E2A4EBB0E049D40F91992056
:1009CA0009F408950F9302E060270F9108950F9399
:1009DA0006E2AEE1B0E03BD4F1E0E0EBD1E0C0E901
:1009EA0000E183D4AEDC00FDEFD002FDA1D2992054
:1009FA0011F001FD23D00F9108950F9300E8D1E083
:100A0A00CAE114E009931A95E9F70FEF14E0099384
:100A1A001A95E9F72BD1D2E0C6E6C0930401D09328
:100A2A000501DCE9C0E4C0930B01D0930C0109D1A4
:100A3A000F9305E2F0D30F910F91089565D206E264
:100A4A0032D407E230D41DD131D151D06BD001E07C
:100A5A00009306017F7B0EE116E03AD00F9302E283
:100A6A00DAD30F9166277727089502E21CD409E1A9
:100A7A00A0E3B5E7ECD364DE79DF0F930AE0CBD3CA
:100A8A000F913092280186E6677F0FE1A4E6B0E075
:100A9A00DED3089572DD309228010BE104D400916F
:100AAA000601002311F4A5D1089563FF99E063FDBF
:100ABA009AE07F7B0CE116E00BD00FE100932C014A
:100ACA00DCE1C0EA63FD02C0DCE1CCEA1CDD08958A
:100ADA00B12EC02E09E2A8E2B0E0B9D30895DC989D
:100AEA00DC9AD1E0C2E2CB0DD31DC88208953092C0
:100AFA002201309223013092240130922501309252
:100B0A002601309227013092280130922901309231
:100B1A002C0130922D0105E100932B0104E1009391
:100B2A002A0108950F9362FDADD10091220170FD53
:100B3A0072D370FD7E7F0091230172FD6CD372FD2A
:100B4A007B7F0091240171FD66D371FD7D7F009149
:100B5A00250173FD60D373FD777F0091280176FD2F
:100B6A005AD376FD7F7B0091290177FD54D377FD17
:100B7A007F7701E1A5E0B0E06AD30F910895009173
:100B8A00040110910001010F0F93009101011091CE
:100B9A000501101F17950F910795009304011093F3
:100BAA0005010091070110910B01010F0F9310919C
:100BBA00080100910C01101F17950F9107950093DA
:100BCA000B0110930C0108950F9306E26CD39394D2
:100BDA00D6DFD1E0C0E982DDD1E0C0E90CE40993B7
:100BEA0003E509930AE30993D1E0C3E900910B01F4
:100BFA0010910C01C6D5D1E0C8E900910401109109
:100C0A000501BFD5D1E0CCE903E5099302E40993D4
:100C1A0004E309930EE7099394DB02FD05C009E09A
:100C2A00ABE0B0E014D30BC00CD0FEE1E6E7D1E0B4
:100C3A00C0E900E163D306E2ACE2B1E008D30F9168
:100C4A000895D0E0C2E1B1E0A4E012E00D919AD299
:100C5A0021961A95D9F7D0E0C0E1B1E0ABE012E0F5
:100C6A000D9190D221961A95D9F70895D0E0C4E152
:100C7A00B1E0AAE118E00D9185D221961A95D9F72B
:100C8A000895D0E0C2E1B1E0A4E012E083D20D936E
:100C9A0021961A95D9F7D0E0C0E1B1E0ABE012E0B5
:100CAA0079D20D9321961A95D9F70895D0E0C4E127
:100CBA00B1E0AAE118E06ED20D9321961A95D9F700
:100CCA0008950DE100932D0101E200932C01DCE16E
:100CDA00C8EB19DC08950BE1E6D230922901309273
:100CEA0028014BDC3092220130922401092F60FD49
:100CFA0002950770FEE0E0E8E00FF31DEE0FFF1F1C
:100D0A00C591D49100E200932C01FDDB60FF97E7C7
:100D1A0060FD90E008950BE1C6D22FDC30922201EB
:100D2A003092240163FF02C0DCE1CCE763FD02C01C
:100D3A00DCE1CCE60F9308E060270F910FE1009306
:100D4A002C01E1DB089508950F930BE164D20F9112
:100D5A00309228017F770FE0009329017E7F08E215
:100D6A00009322017D7F009324010BE100932C0163
:100D7A00DCE1C4E6C8DB0895092F02959F70007F65
:100D8A00939560FF9250192F9770902B187069F005
:100D9A0060FF90E060FD97E70F9301E060270F91F5
:100DAA000CE1A5E0B0E053D208950BE1A5E0B0E074
:100DBA004ED208959FDC0BE2AFE0B0E048D2309209
:100DCA002D010FE100932C01DCE1C8E99CDB0895B9
:100DDA00DCE1C0E308C0DCE1C8E305C0DCE1C0E552
:100DEA0030922C0100C030922201309224018BDB18
:100DFA0008950BE158D230922201309224013092A8
:100E0A00290198E00AE116E063DE09E100932C016A
:100E1A00DCE1C8E578DB089530922C01AEDB309234
:100E2A00280130922A0130922B0187E703E20093CE
:100E3A00220104E20093240108958F7003E10093D4
:100E4A002401309222010895807F03E10093220158
:100E5A003092240108950F9300E1DDD10F910AE049
:100E6A0022D201E020D2D1E0C0E9A5DC30922201F1
:100E7A003092240102E0A0EDB7E0E9D130922D01D1
:100E8A00A4D208956B7F009180010093160100910E
:100E9A0081010093170100918201009318010091CA
:100EAA00830100931901D1E0C6E118810C81101762
:100EBA0008F472600885011708F472602196188197
:100ECA000C81101708F471600885011708F4716025
:100EDA00219618810C81101708F47860088501178B
:100EEA0008F47860219618810C81101708F4746050
:100EFA000885011708F47460AFD40895E3DB0CE0A9
:100F0A00ADE1B0E0A4D10895EED90FEF00931A0134
:100F1A0000931B0100931C0100931D0100270093FD
:100F2A001E0100931F0100932001009321010895DF
:100F3A000F9306E2B8D1FCE1E0ECE0931401F093E0
:100F4A001501E2DF02D00F910895E0911401F091AA
:100F5A0015018591882381F4939406E0A4D133D0B6
:100F6A0085DEFEE1E6E4D1E0C0E900E1C7D106E2B0
:100F7A00ACE2B1E06CD10895E0931401F09315014D
:100F8A0007E0A4E6B0E063D10F9306E044D10F91E5
:100F9A00089562FF13C06B7FB1E0A0E8D1E0C6E11B
:100FAA0044E00D911C81011708F40C831885011780
:100FBA0008F0088721964A95A1F78ED006E0A3E0AB
:100FCA00B0E045D10895D1E0C6E144E00C8118852E
:100FDA00100F179516951695011B08F40027015056
:100FEA0008F400270C830885010F08F40FEF0F5F40
:100FFA0008F00FEF088721964A9541F708958B98D4
:10100A0093980F9300916A000F73006C00936A0023
:0C101A0009B7086009BF0F917F7B0895A3
:0200100062C0CC
:101026000F9301B105FB0F9174F908951598169861
:101036001D9A1E9A09E105BD0EED03BDBF9A8A9A57
:08104600929A129A1A9A089579
:02001800A8C07E
:02001C00CBC057
:10104E00D1E0C0E900911F01132D99D3D1E0C8E979
:10105E0000912101132D93D3D1E0C5E900911E011A
:10106E00132D8DD3D1E0CDE900912001132D87D31F
:10107E0008950FD0D1E0C3E900910B0110910C013E
:10108E007ED3D1E0CBE9009104011091050177D315
:10109E000895D1E0C0E90CE4099303E509930AE34E
:1010AE000993D1E0C8E906E409930DE409930AE334
:1010BE0009930895EEDFD1E0C3E900910701109185
:1010CE0008015DD3D1E0CBE900910001109101013F
:1010DE0056D308954F93B1E0AAE1D1E0C0E948E0BC
:1010EE000D91102F0F7012951F70006310630A334D
:1010FE0008F0095F1A3308F0195F199309934A959E
:10110E0079F74F910895D1E0C0E9E6DA61FDB1DFDC
:10111E0061FFE0DF0F9302E060270F9102E2AAEF7A
:10112E00B0E093D0089500918B0000700060109194
:10113E008A00107E126C00938B0010938A0000912F
:08114E007D00006200937D00AA
:02006400C4C016
:1011560008951C81011708F40C831885011708F0FF
:1011660008870895FDE1E6E2D4D00F7009F472B65F
:10117600000FE00FF31D0591F491E02F8FDA02E0E6
:10118600A8ECB0E066D00895E199FECFDFBBCEBBF8
:101196000DBBE29AE19A0895E199FECFDFBBCEBB83
:1011A600E09A0DB30895FF93EF93F1E0E0E40FEFBB
:1011B60010E101931A95E9F7EF91FF910895FF93D6
:1011C600EF93F1E0E0E510E10FEF019331923192F8
:1011D6001A95D9F7EF91FF910895F1E0E0E4022D19
:1011E6000F70E00F00810F3FB9F02F932FB7F894DF
:1011F6001FEF1083122D1295105F1F7F1295212E5F
:10120600AA94F8E0E0E0000FE00FF31D0591F491D9
:10121600E02F2FBF2F9109940895DF93CF931F934B
:101226002F932FB7F894D1E0C0E4122D12951F70BA
:10123600C10F18811F3F39F40883122D105F1F7FDD
:10124600212EA3946FD02FBF2F911F91CF91DF91A5
:101256000895FF93EF931F932F933F933FB7F8940F
:10126600F1E0E0E520E11081101739F4A183B283A3
:10127600AB2BA1F41FEF108311C033962A9599F773
:10128600F1E0E0E520E110811F3F21F40083A18316
:10129600B28304C033962A95B1F756D03FBF3F912B
:1012A6002F911F91EF91FF910895FF93EF931F9355
:1012B6002F933F93F1E0E0E520E13FB7F8941081EA
:1012C600101729F4318232821FEF108303C0339640
:1012D6002A95A9F73FBF3F912F911F91EF91FF915B
:1012E60008951F9309931A95E9F71F9108951F937F
:1012F6000F93119119930A95E1F70F911F91089594
:101306001F930F93159119930A95E1F70F911F916A
:101316000895072D000F000F000F000F070D0B5C3F
:10132600702E08950F9300E1A01620F0F9E0EFE982
:10133600B5D9FFCF0F91089520204572726F7220A4
:101346005461736B206F766600E8AE9821D9EEE59E
:10135600F3E18DD9FFCF08954572726F7221210096
:10136600F3E1E8E8F7BDE6BDF1E0E7E7FBBDEABD7E
:10137600F9BDE8BD98E00FB5007002681EB5107E95
:101386001B610FBD1EBDBD9AC59A07B7046007BF96
:0200380044C1C1
:081396000895AF98A79A08958D
:02007000FFC0CF
:10139E00DC98DC9ABEE0A8EEA0932E01B0932F014C
:1013AE000895E80E1A0E490D8F0CD60B310B8E0ACE
:1013BE00F7096909E0086108E807640032001900BE
:1013CE000C0006000300FBE1E4E3E0933001F09330
:1013DE0031010F9308E01DDF0F9108950091060172
:1013EE000A9500930601FBE1E2E0E0933001F093F1
:1013FE0031010F9308E00DDF0F910895E091300158
:10140E00F091310105911591E0933001F093310186
:10141E000F9329D00F7009F42ED0F3E1E0EB0A956B
:10142E00000FE00FF31DA591B5910F9102950F706E
:10143E000A9519F0B695A795FBCFA0932E01B09300
:10144E002F01112329F417D000912D01E2DE08950A
:10145E001A95110FF3E1E8ECE10FF31DA591B5918B
:10146E0008E0F3DE08950F9300917D000260009373
:10147E007D000F9108950F9300917D000D7F0093D5
:10148E007D00AF980F91089515981D9A0F930AB786
:10149E000B7F04600ABF09B7006209BF0F916F7B13
:1014AE006F77089567FD08950F931F9366FF3AC0F7
:1014BE0002B71091C8010093C801011B1091C90118
:1014CE0013951093C90199F415E40C3068F015E3E7
:1014DE00043250F013E5053338F01DE40B3820F0DC
:1014EE001EE40B3908F015E41093CA012EC01091BA
:1014FE00C90110FF2AC014E110170091C40107950D
:10150E000093C4010091C50107950093C501009198
:10151E00C60107950093C6010091C7010795009378
:10152E00C70113C01FEF1093C9013092C40130924E
:10153E00C5013092C6013092C701606402B70093B4
:10154E00C8010DE0AAE0B0E080DE1F910F91089572
:10155E000F9309B70F7D09BF0F916F7B0091CA01E1
:10156E000E3409F419D0053309F40DD0033509F4FE
:10157E000DD00D3409F40DD06F7B0F9309B70062B7
:10158E0009BF0F9108950F930F9108950F930F9127
:10159E0008950F930F9108950F931127222700910D
:1015AE00C4011027202B0093C0010091C501102704
:1015BE00202B0093C1010091C6011027202B009310
:1015CE00C2010091C7011027202B0093C30159F0CF
:1015DE00112349F460680091C7010093CB0100917B
:1015EE00C5010093CC010F91089567FF5CC060D0D8
:1015FE000091CC01093011F490E054C00D3111F47A
:10160E0091E050C00F3111F492E04CC00D3011F446
:10161E0093E048C0093111F494E044C00B3111F449
:10162E0095E040C0013111F496E03CC0053111F453
:10163E0097E038C0073111F498E034C0023111F44C
:10164E0099E030C0063111F49AE02CC0013011F44B
:10165E00CEDB28C0033011F4706424C00C3411F4B6
:10166E0038DB20C0063019F485DB5ADA1BC00C318A
:10167E0011F4806417C00C3011F4846013C00F3065
:10168E0011F480E00FC0043519F400E880270AC079
:10169E000D3419F408E0802705C0043111F493DEEF
:1016AE0001C001C06F770EE0AFE1B0E0CEDD08956E
:1016BE00C0E9D1E0E0E2E993C03A01E0D007D8F307
:1016CE0009E40093900102E5009391010091CA0193
:1016DE0000939301D1E0C5E90091C901132D4FD0BC
:1016EE00D1E0C8E9B1E0ABEC42E00D91102F0F70E4
:1016FE0012951F70006310630A3308F0095F1A33E6
:10170E0008F0195F199309934A9579F70895010F17
:10171E0002C0011F00C01FB70A5F15F415FF065067
:10172E00005A10F410FF00560895011B1FB715FD47
:10173E00065010FD00560895089511E0E8DF089553
:10174E0011E0F3DF089520E1FF24EE24DD24FF27CE
:10175E00000F111FDD1CEE1CFF1C2A9509F40895C5
:10176E00E0E132913D5F33FD30833081305D37FDF6
:10177E003083ED30B1F7ECCFB4E0A5E002C0BFEF9F
:10178E00AFEF2F933F934F93DEDF25E0F6E0FB1B89
:10179E00E6E0EA1B3327BB27AFE04EEF422309F406
:1017AE003FEF4C9120FF42954F70342B4063331125
:1017BE004993331103952E1779F02F1749F43323DC
:1017CE0021F4339540E3499303954EE249930395F3
:1017DE002A9520FF4E9109F74F913F912F91089531
:1017EE000091060100630093BA0100918701102F4A
:1017FE000F7012951F70006310630A3308F0095FB3
:10180E001A3308F0195F1093BC010093BD0100E17B
:10181E00F1E0E0EBD1E0C0E966DDD1E0C0EBF3E052
:10182E00E3E7099501E80093B0010093B801009336
:10183E00B7010093BF010EE20093B2010093B50110
:10184E000FE50093B4010093B3010AE0A9E1B0E003
:10185E00FCDC08950FE370FD0093B00172FD009360
:10186E00B80171FD0093B70173FD0093BF01089598
:10187E0018042103180410051A051C031504150479
:10188E001A03180410051605180311041005110586
:10189E0013031304100515051603160418041A0372
:1018AE001C0410052105230310041804250323042A
:1018BE001005210523031C04180421031C04100524
:1018CE001A051C03150415041A0318041005160531
:1018DE00180311041005110521031C0410051A0527
:1018EE0018022502230421041C04210423031004DE
:1018FE001804180221021C041A0418041A041C03EA
:10190E00100415041503100321031A0410051C05F9
:10191E0021031A0410051C0521031A0410052105C4
:10192E002602260225042304210423042503100481
:10193E0021042102230221041C041A041C04210385
:10194E0010041A041A0221031C041A0418031104A9
:10195E001005110521031C0410051A0518041004A6
:10196E001004180418042103180410051A051C038A
:10197E00150415041A03180410051605180311048E
:10198E00100511051303130410051505160316048F
:10199E0018041A031C04100521052303100418044F
:1019AE00250323041005210523031C041804210319
:1019BE001C0410051A051C03150415041A0318043B
:1019CE0010051605180311041005110521031C043A
:1019DE0010051A0518022502230421041C042104F3
:1019EE00230310041804180221021C041A041804FC
:1019FE001A041C03100415041503100321031A0402
:101A0E0010051C0521031A0410051C0521031A04D8
:101A1E001005210526022602250423042104230491
:101A2E002503100421042102230221041C041A049C
:101A3E001C04210310041A041A0221031C041A04A4
:101A4E00180311041005110521031C0410051A05B5
:101A5E00180410041004180421031C041A0418039B
:101A6E0011041005110518021A031C03210121018E
:101A7E002104100015031A0315031A0315031A0384
:101A8E001C0321031C041A04180218032103230348
:101A9E002503210323031C03210328032603250307
:101AAE0023031A03260226022503230321031C0304
:101ABE001A021A031C032103230325032303210304
:101ACE001C03210328032603250323031A032602DE
:101ADE0026022503230321031C031A021A031C03E7
:101AEE00210323032503230321031C031A011A02D6
:101AFE0010021000210428042604250423041A04CD
:101B0E00260326032504230421041C041A031A04A5
:101B1E001C04210423042504230421041C041A029A
:101B2E001A03100310001A021A031A031A031803D9
:101B3E001A031C03210221031C031A0218021602A7
:101B4E001A0215021A0213021303150316021802C3
:101B5E001A021A031A031A0318031A031C0321028A
:101B6E0021031C031A02180216021A0215021A0287
:101B7E00130113021002150215021A03180316039D
:101B8E00150313031503160313031502150216028C
:101B9E001602180218021A011A0210021502150274
:101BAE001A03180316031503130315031603130361
:101BBE001502150216021A0215021A021302130357
:101BCE00150316021802210221031C0321021A0218
:101BDE001802180221031C031A0318031602160218
:101BEE00180218021A021A0318031A021C02210202
:101BFE0021031C0321021A021802180221031C03DE
:101C0E001A03180316021A0215021A0213011301FF
:101C1E0010005016002800000000050016280000D5
:101C2E000000502D00280000000005002D280000A7
:101C3E000000505B00280000000005005B2800003B
:101C4E0000005B5B5B28000000005B5B5B285B5B5E
:101C5E005B2800000000660202FF00000000AA1DC3
:101C6E001D14602D00286617171400000000AA1D11
:101C7E001D1406002D28661717140000000044FFDF
:101C8E00FF1444FFFF1400000000975B5B28000068
:101C9E0000006A5B5B285B5B5B2800000000A65BB4
:101CAE005B28B55B5B2800000000773B3B1400000F
:101CBE0000005BB533DDB5B50000790606280000DF
:101CCE0000007905052800000000790404280000B2
:101CDE00000000000000000000009704042800002F
:101CEE000000970505280000000097060628000052
:101CFE000000C81CD01CD81CE01CE41CE81CF01C06
:101D0E00F81CDD0003012A0150019D01C301E90108
:101D1E001002770191005C02461D561D661D761D50
:101D2E00861D961DA61DB61DC61DD61DE61DF61DCD
:101D3E00061E161E261E361ECFEEE4F5EEE4E82134
:101D4E00CDE520F0EEE1E5E9C020CFEEE3EEE4E0F4
:101D5E00F5EEF0EEF8E0FF3F2D3D54616E6B3D2D3C
:101D6E005665722E20302E3152544F5320627920F8
:101D7E0020535F416C657820202050434220202064
:101D8E004F70656E53797320D2E5EB2E30353532B8
:101D9E0020333236393337202020D5CDD2D32020F0
:101DAE00CAE0F4E5E42ECAD2C03F20D7E5E3EE2028
:101DBE00F1ECEEF2F0E8EC3F20C4E5F2FFEC20206F
:101DCE003320E4EE20383020C1F3E4FCF2E520208D
:101DDE0020C7C4CED0CEC2DBC7E0F5EEE4E8F2E514
:101DEE00E5F1EBE820F7F2EED0E5E1E5EDEEEA20E5
:101DFE00F1EAF3F7E0E5F23FD7E8F1F2EEF2E02D8B
:101E0E00C7C4CED0CEC2DCC52D3D44656D6F3D2D11
:101E1E0020204D4F44452020D1EEE1EBFEE4E0E9D9
:101E2E00D7E8F1F2EEF2F32E2049204C4F56452022
:101E3E002D3D4156523D2D2020475241554E4420B6
:101E4E005361766564204F4B53423420474E4420F5
:101E5E0053423220464D4C5353423320474F21209C
:101E6E0020474F2120474F2120464D20204C532004
:101E7E005361766564204F4BEEFF8283848586879F
:101E8E0088898A8B8C8D8E8F90919293949596974C
:101E9E0098999A9B9C9D9E9FA0A1A2A3A4A5A6A73C
:101EAE00A8A9AAABACADAEAFB0B1B2B3B4B5B6B72C
:101EBE00B8B9BABBBCBDBEBF41A042A1E045A3A408
:101ECE00A5A64BA74D484FA8504354A9AA58E1AB1D
:101EDE00ACE2ADAE62AFB0B161B2B3B4E365B6B76A
:101EEE00B8B9BABBBCBD6FBE7063BF79E478E5C04C
:081EFE00C1E6C2C3C4C5C6C79A
:00000001FF
